:020000040800F2
:10000000D00700209D010008812C0008CF260008A1
:10001000692B0008D1070008C53300080000000064
:100020000000000000000000000000003B2D000860
:100030009D08000800000000392D00083D2D000833
:10004000B7010008B7010008B7010008B7010008B0
:10005000B7010008B7010008B7010008B7010008A0
:10006000B7010008B7010008B7010008B701000890
:10007000D5070008B7010008E1070008B70100082C
:10008000B7010008B7010008B7010008B701000870
:10009000B7010008B7010008B7010008B701000860
:1000A000E52D0008B7010008B7010008B7010008F6
:1000B000B7010008B7010008B7010008B701000840
:1000C000B7010008B7010008B7010008B701000830
:1000D000B7010008B7010008B7010008B9330008EC
:1000E000B7010008B7010008B7010008B701000810
:1000F000B7010008B7010008B7010008B701000800
:10010000B7010008B7010008B7010008B7010008EF
:10011000B7010008B7010008B7010008B7010008DF
:10012000ED070008B7010008B7010008B701000893
:10013000B7010008B7010008B7010008B7010008BF
:10014000B7010008B7010008B7010008B7010008AF
:10015000B7010008B7010008B7010008B70100089F
:10016000B7010008B7010008B7010008B70100088F
:10017000B7010008B7010008B7010008000000003F
:10018000B7010008B7010008DFF80CD000F032FA20
:100190000048004705340008D00700200648804783
:1001A00006480047FEE7FEE7FEE7FEE7FEE7FEE75C
:1001B000FEE7FEE7FEE7FEE7D52D0008890100080F
:1001C0002DE9F05F0546002092469B46884606468C
:1001D000814640241BE0284641464746224600F01F
:1001E0008AF953465A46C01A914110D3114618460F
:1001F000224600F071F92D1A67EB01084F4622469E
:100200000120002100F068F917EB00094E41201E83
:10021000A4F10104DFDC484631462A464346BDE8E6
:10022000F09FD2B201E000F8012B491EFBD27047CB
:100230000022F6E710B513460A4604461946FFF7B2
:10024000F0FF204610BD2DE9FE4F804681EA0300F5
:10025000C00F0C46009021F0004123F00045B8EBA0
:100260000200A94105D24046214690461C460B4655
:10027000024623F00040104347D0270DC7F30A0081
:10028000C3F30A510290401A019040286BDAC3F37D
:10029000130040F4801B0098924620B10023D2EB5B
:1002A000030A63EB0B0B01985946C0F1400250461C
:1002B00000F012F906460D4650465946019A00F0E4
:1002C0002AF910EB08006141002487EA115284EA00
:1002D000E7731A4340D0009A62B3019A012A4FEAA9
:1002E000075215DC001B61EB02014FF0004202EAED
:1002F0000752CDE90042001C41F5801132462B46E1
:1003000000F02AF903B0BDE8F08F40462146F9E736
:10031000001B61EB0201001C41F5801300185B41DA
:100320002018A2F5001747EB030140EAD570B61973
:100330006D4111E06D084FEA360645EAC0754FEA97
:100340000752001B61EB0201001C41F580114908B6
:100350004FEA30000019514132462B4603B0BDE848
:10036000F04F00F0EAB80098012240000023D0EBE3
:10037000020263EBE073009821464FEAE074B8EBA9
:10038000000061EB0401E9E783F000435BE781F0E3
:10039000004158E72DE9FE4F81EA030404F00044D0
:1003A00021F0004100944FF0000B23F0004350EA8D
:1003B00001045ED052EA03045BD0C3F30A54C1F3D4
:1003C0000A552C44A4F2F3340194A0FB0254C1F367
:1003D000130141F48011C3F3130343F4801301FBB1
:1003E000024400FB034E840A970A44EA815447EA18
:1003F0008357A4FB076802958D0A05FB07854FEA22
:10040000932C04FB0C542705029D4FEA065847EA3B
:100410001637B5EB08056EEB070C870E920E47EA10
:10042000811742EA8312A7FB0201B6EB0B0164EBD2
:1004300000042B0D43EA0C335E1844EB1C50DA46E3
:100440005146E7FB0201C5F313044FEA0B3343EABD
:1004500014534FEA0432019C43EA0603A4F10C044E
:100460000294009CCDE900B400F076F803B0BDE83A
:10047000F08F00200146F9E70EB5C10F80EAE07069
:100480000844CA07002140F233438DE80E000A46B3
:100490000B4600F061F803B000BD70B5C1F30A521D
:1004A00001F000450024C1F3130140F2FF3341F491
:1004B00080119A4201DA002070BD40F233439A4223
:1004C000A2F2334203DC524200F015F800E0904003
:1004D0002C43F1D0404270BD202A04DB203A00FAC0
:1004E00002F1002070479140C2F1200320FA03F38B
:1004F000194390407047202A04DB203A21FA02F089
:100500000021704721FA02F3D040C2F1200291404D
:10051000084319467047202A06DBCB17203A41FAD8
:1005200002F043EAE07306E041FA02F3D040C2F180
:100530002002914008431946704710B5141E73F10C
:10054000000408DA401C41F1000192185B411A4393
:1005500001D120F0010010BD2DE9F04D92469B46DF
:1005600011B1B1FA81F202E0B0FA80F22032904685
:10057000FFF7B2FF04460F4640EA0A0041EA0B01CA
:1005800053465A46084313D0114653EA010019D086
:10059000C8F140025046FFF7AEFF05460E465046F2
:1005A00059464246FFF798FF084305D0012004E072
:1005B00020463946BDE8F08D0020054346EAE07646
:1005C0002C4337430A986305E40AA0EB0800002295
:1005D000FD0A44EA47540A3002D500200146E9E703
:1005E000010510196941DDE9084500196941BDE8B7
:1005F000F04DA2E7064C074D06E0E06840F001032D
:1006000094E8070098471034AC42F6D3FFF7C0FDDA
:1006100098350008B835000810B50146806B026CAB
:1006200012F0500F05D0026CD20626D500F0E2F988
:1006300010BD016C41F40071016401688A6812F018
:10064000405F17D1027EAAB9CA6A12F4700F02D0B5
:100650008A6852050ED44A6822F020024A60016C72
:1006600021F480710164016CC90403D4016C41F070
:100670000101016400F0BCF910BD806BC26CBDE8E3
:1006800010400846104710B5806B40210164416C52
:1006900041F00401416400F0ADF910BD10B5806B6C
:1006A00000F0A7F910BD0000464910B54A6822F4D1
:1006B00040324A604A6843681A434A6001684A689F
:1006C00022F480724A6001684A68036942EA0322A0
:1006D0004A6001684A6822F040724A6001684A68CC
:1006E00083681A434A6001688A6822F400628A605B
:1006F00001688A68C3681A438A60816A6FF0706211
:10070000D14201688A6822F070628A6001688A6852
:100710000CD0836A1A438A6001688A6822F04052CA
:100720008A6001688A68C36A1A4301E022F0405275
:100730008A6001688A6822F002028A6001688A6819
:10074000037E42EA43028A6090F820100029016883
:100750004A680FD042F400624A6001684A6822F495
:1007600060424A6001684A68174C436A04EB4333AD
:100770001A4301E022F400624A600168CA6A22F466
:100780007002CA620168CA6A838B104C04EB03537F
:100790001A43CA6201688A6822F400728A6001689A
:1007A0008A6890F8303042EA43228A6001688A6899
:1007B00022F480628A6001688A68406942EA802087
:1007C000886010BD0023014000E0FFFF0000F0FF43
:1007D000FEE70000014800F08BBA00000C03002087
:1007E000014800F085BA00006C030020014800F0C9
:1007F0007FBA0000B400002001681823CAB2103A82
:10080000B2FBF3F2054B6FF30901032A9B5CC3654E
:1008100000D9091D81650846704700007835000839
:1008200010B5014600208B698A6A4FF0C07453B13D
:10083000B3F5005F15D072B1012A0CD0022A0AD09C
:10084000032A09D104E01AB1012A06D0022A03D1F1
:10085000C96AC90100D5012010BDC96AA142FAD0F8
:1008600010BD002AF7D0012AF2D0022AF3D0032AC1
:10087000F3D010BD30B50468256825F480252560C7
:10088000046863608368402B036803D09960006844
:10089000C26030BD9A600068C16030BD704772B6FA
:1008A000FEE7000078B50024009490F83C20012A6F
:1008B00019D0012280F83C200A6807230568092A1C
:1008C00013D9EE680A3A02EB420293409E43EE606F
:1008D0000B788A680A3B03EB43039A400368DD68A0
:1008E0002A43DA6010E0022078BD2E6902EB420252
:1008F00093409E432E610B788A6803EB43039A4032
:1009000003681D692A431A614A681F23072A13D204
:1009100005686E6B521E02EB820293409E436E632B
:100920000B790A885B1E92B203EB83039A4003683B
:100930005D6B2A435A6327E005680D2A12D22E6B9D
:10094000D21F02EB820293409E432E630B790A88EA
:10095000DB1F92B203EB83039A4003681D6B2A43AB
:100960001A6311E0EE6A0D3A02EB820293409E4355
:10097000EE620B790A880D3B92B203EB83039A4037
:100980000368DD6A2A43DA62164B0568144A9D4201
:1009900006D10D68122D03D1556845F480055560C8
:1009A00005689D4218D10B68102B01D0112B13D173
:1009B000536843F400035360096810290CD10A49B5
:1009C0000A4A0968B1FBF2F101EB8101490000E03C
:1009D000491E00910029FBD180F83C40002078BDE1
:1009E00000230140002001402800002040420F0069
:1009F00070477047704770B504004FF0000503D092
:100A0000206C002610B107E0012070BD204600F0E8
:100A10001DF8666484F83C60206CC00610D4206C1D
:100A200020F4885040F0020020642046FFF73CFE8E
:100A30006664206C20F0020040F00100206400E0B9
:100A4000012584F83C60284670BD000070B586B072
:100A5000064614216846FFF7EBFB1D4930688842C3
:100A600034D11C480025016841F4807101600068A0
:100A700000F48070059017481438016841F00101B6
:100A800001600068694600F0010005901E2000909A
:100A90000320CDE90105104800F0AEFA104C0F48D4
:100AA000C4E900050015A560C4E903504000606179
:100AB0008000A0614011C4E907052046656200F08E
:100AC000E7F908B1FFF7EBFEB463A66306B070BDAB
:100AD00000200140443802400000024010640240FF
:100AE000B4000020F8B5044600200E46009094F8AB
:100AF0003C10012907D0012184F83C1021688B6843
:100B0000DB0702D011E00220F8BD8B6843F001033F
:100B10008B604049404B0968B1FBF3F101EB4101A7
:100B200000E0491E00910029FBD121688B68DB059C
:100B300003D58B6823F480738B6021688B68DB0797
:100B40005DD0236C40F20165AB4343F480732364B2
:100B50004968490505D5216C21F4005141F48051C3
:100B60002164216CC90404D5616C21F00601616423
:100B700000E0606484F83C00A16B2948274DC863FD
:100B8000A16B28480864A16B2748C86421686FF0EE
:100B9000220008602068416841F08061416020685F
:100BA000816841F4807181602168134632464C317E
:100BB000A06B00F0D7F968681C49C006206806D011
:100BC000884224D1816811F0405F13D01FE0884231
:100BD000F8D0174A904203D1D1F80423D206F1D0BD
:100BE000144A904213D1D1F8041301F01F011029C7
:100BF000E8D30CE0816841F08041816007E0206C1F
:100C000040F010002064606C40F00100606400203F
:100C1000F8BD00002800002040420F0000230140E2
:100C2000190600089D0600088706000800200140FC
:100C300000210140002201402DE9F0410446876D6A
:100C400000F0DCFA064694F835000025022806D0AC
:100C50008020606584F834500120BDE8F081206870
:100C6000016821F0160101602068416921F08001CE
:100C70004161206C08B9A06C20B12068016821F0A6
:100C8000080101602068016821F0010101600CE0A9
:100C900000F0B4FA801B052807D9202060650320E6
:100CA00084F8350084F83450D7E720680068C0071E
:100CB000EED194F85C103F208840B860012084F8A1
:100CC000350084F834500020C7E790F83510022929
:100CD00003D08021416501207047052180F835103F
:100CE0000068016821F001010160002070470000E8
:100CF0002DE9F84304464FF00009CDF80090634811
:100D00004FF41651A56D0068B0FBF1F72E6894F80A
:100D10005C10082000FA01F131420FD021680A6806
:100D200052070BD50A6822F004020A6094F85C109E
:100D30008840A860606D40F00100606594F85C1028
:100D40004FF0010808FA01F0304208D021684969E3
:100D5000090604D5A860606D40F00200606594F853
:100D60005C1004208840304208D021680968890757
:100D700004D5A860606D40F00400606594F85C10D4
:100D800010208840304218D021680968090714D51E
:100D9000A86020680168490304D50068000308D5ED
:100DA000A16C07E00168C90503D4016821F00801BE
:100DB0000160216C09B12046884794F85C1020201E
:100DC0008840304231D021680968C9062DD5A86015
:100DD00094F8350005282068016806D0490347D5F6
:100DE000006800031DD4616C1CE021F01601016055
:100DF0002068416921F080014161206C08B9A06C34
:100E000020B12068016821F00801016094F85C10AD
:100E10003F208840A86084F8358084F83490216DA4
:100E20001FE0E16B09B120468847606D00282BD098
:100E3000606DC00714D0052084F835002068016873
:100E400021F0010101600098401C0090B84203D8D5
:100E500020680068C007F6D184F8358084F83490A3
:100E6000E16C002910D001B02046BDE8F0430847EE
:100E70000168C905D5D4016821F01001016084F82A
:100E8000358084F83490CCE7BDE8F8832800002052
:100E90002DE9F041044600F0B1F906465CB10220AC
:100EA00084F83500002584F834502068016821F06A
:100EB000010101600DE00120BDE8F08100F09EF924
:100EC000801B052805D920206065032084F83500A3
:100ED000F2E720680068C007F0D122681168204856
:100EE0000140D4E901031843D4E9033633431843DE
:100EF00063691843A3691843E3691843236A1843D5
:100F00000843616A042903D1D4E90B131943084348
:100F1000106020684069666A20F0070130460E4381
:100F2000012704280CD1A06A0643E06A40B120469C
:100F3000FFF776FC20B14020606584F83570BAE791
:100F4000206846612046FFF757FC94F85C203F215B
:100F500091408160656584F835700020ACE7000041
:100F60003F8010F02DE9F0410446866D90F8340082
:100F7000002501280DD0012084F8340094F8357044
:100F80000020012F07D084F8340002252846BDE850
:100F9000F0810220FBE7022784F835706065204667
:100FA000FFF768FC94F85C103F208840B060206830
:100FB000016841F016010160206C20B120680168D1
:100FC00041F0080101602068016841F00101016001
:100FD000DCE7000070B5044600F010F90546601C1F
:100FE00002D004480078044400F008F9401BA042F5
:100FF000FAD370BD1C0000202DE9F84FDFF8BCA12A
:101000000022012503264FF00F090AF1040BAAF173
:10101000040E00BF0B6805FA02F42340A34270D10E
:101020000F7907F00307012F01D0022F16D187682F
:101030004FEA420806FA08FC27EA0C07D1F80CC070
:101040000CFA08FC4CEA070CC0F808C04768A74334
:101050000C79C4F3001494403C4344600C79E4439D
:10106000A4070AD0C4684FEA420C06FA0CF7BC4346
:101070008F6807FA0CF72743C7600C7904F0030464
:10108000022C12D1D40800EB840CDCF82040570766
:10109000FF0E09FA07F824EA0804D1F8108008FACC
:1010A00007F848EA0408CCF8208004684FEA420CAC
:1010B00006FA0CF7BC430F7907F0030707FA0CF7A1
:1010C000274307604C6814F4403F70D03C4C2768BD
:1010D00047F480472760246822F0030704F4804423
:1010E0000094384C07EB040CDCF8084897074FEAEB
:1010F000177809FA08F7BC43334FB84202D10027EA
:1011000024E054E0314FB84201D101271EE0304FB6
:10111000B84201D1022719E02E4FB84201D103276E
:1011200014E02D4FB84201D104270FE02B4FB842F5
:1011300001D105270AE02A4FB84201D1062705E070
:10114000284FB84201D1072700E0082707FA08F71F
:101150002743CCF80878DAF800405746D1F804C0A5
:101160009C435FEACC2C00D51C433C60DBF800407C
:101170005F46D1F804C09C435FEA8C2C00D51C4329
:101180003C60DEF800407746D1F804C09C435FEA3B
:101190008C3C00D51C433C60084F083F3C68D1F8AC
:1011A00004C09C435FEACC3C00D51C433C60521C0D
:1011B000102AFFF42FAFBDE8F88F0000083C014073
:1011C0004438024000300140000002400004024068
:1011D00000080240000C02400010024000140240CF
:1011E00000180240001C02400069084000D00120A5
:1011F00070470AB1816170470904FBE701488068C4
:10120000704700001C0000200248816802781144E9
:10121000816070471C0000200B4810B5016841F444
:1012200000710160016841F480610160016841F46E
:1012300080710160032000F06FF80F2000F006F8C5
:1012400000F024F8002010BD003C024070B50D4DA8
:1012500004464FF47A712878B1FBF0F00A49096826
:10126000B1FBF0F000F00CFB48B9102C07D20022C3
:101270002146501E00F030F800206C6070BD012047
:1012800070BD00001C000020280000200A4808B59E
:10129000016841F480410160006800F480400090E2
:1012A0000548001F016841F080510160006800F0AE
:1012B0008050009008BD000044380240002809DB3F
:1012C00000F01F02012191404009800000F1E02060
:1012D000C0F8001170470000F0B40E4B1B680C46BC
:1012E000C3F30223C3F10705042D00D90425191DFA
:1012F000072901D2002300E0DB1E012606FA05F1D2
:10130000491E214099409E40761E16403143F0BC54
:1013100002F059B80CED00E0064900F00702086839
:101320004FF6FF03184040EA0220034A10430860CA
:10133000704700000CED00E00000FA052DE9F047D1
:101340000E46050065D0DFF81481D8F80000F7B22A
:1013500000F00700B04207D288F80070D8F800000B
:1013600000F00700B04254D128683D4C810712D5E7
:10137000400703D5206840F4E0502060287800073B
:1013800003D5206840F4604020602068A96820F000
:10139000F000084320602878C0072DD030496868E5
:1013A0000839012812D0022813D0032811D0096867
:1013B000890700292DDA216821F00301014321600A
:1013C000FFF71CFF814641F2883A0EE00968890365
:1013D000EFE709688901ECE7FFF710FFA0EB0901CF
:1013E000514502D90320BDE8F0872068696800F004
:1013F0000C00B0EB810FEFD1D8F80010404601F09F
:101400000701B14207D90770006800F00700B04239
:1014100001D00120E7E72878400705D52068E96872
:1014200020F4E050084320602878000706D52068A3
:10143000296920F4604040EAC100206000F038F8DB
:101440002168084AC1F30311515CC840064908608D
:1014500006480068FFF7FAFE0020C4E7003C02409F
:1014600008380240803500082800002020000020B5
:101470000448054900680968044AC1F38221515CA7
:10148000C840704728000020083802409035000806
:101490000448054900680968044AC1F34231515CB7
:1014A000C8407047280000200838024090350008E6
:1014B000154810B5006810F00C02144813D01449F8
:1014C000042A0FD0082A0ED10F4C241F226823684B
:1014D00002F03F025B0207D52068C0F38810A0FB32
:1014E000010106E0084610BD2168C1F38811A1FB87
:1014F00000010023FEF764FE2168C1F30141491C8D
:101500004900B0FBF1F010BD083802400024F4009F
:10151000001BB7002DE9F84F04006ED02078DFF8EB
:101520004C93C007A9F104054AD009F104000168F1
:10153000C1F38101012908D00068C0F381000228AD
:101540000AD1D9F80000400206D52868800337D5B3
:1015500060680028E1D033E06068B0F5803F10D0CB
:10156000B0F5A02F286810D020F4803028602868BB
:1015700020F4802028606068A8B1FFF73FFE06468F
:101580000DE0286840F48030F4E740F480202860C3
:10159000F7E700BFFFF732FE801B642873D8286886
:1015A0008003F7D50CE0FFF729FE064605E000BFF3
:1015B000FFF724FE801B6428F0D828688003F7D446
:1015C0002078DFF8AC8280074FF0000A3ED5A748AC
:1015D000001D016811F00C0F08D00068C0F38100F5
:1015E00002280BD1D9F80000400207D428688007F0
:1015F00016D5E068012800D112E033E1E068B8B107
:101600000120C8F80000FFF7F9FD064605E000BF1D
:10161000FFF7F4FD801B0228C0D828688007F7D5A3
:101620002868216920F0F80040EAC10028600DE038
:10163000C8F800A0FFF7E2FD064604E0FFF7DEFD74
:10164000801B02281FD828688007F7D4207800075D
:1016500022D5864F87486169703771B101210160D9
:10166000FFF7CCFD064604E0FFF7C8FD801B02280B
:1016700009D838688007F7D50EE0C0F800A0FFF75A
:10168000BDFD064605E082E0FFF7B8FD801B02289D
:101690007DD838688007F7D42078400768D5DFF810
:1016A000CCB100270BF13C0BDBF80000C0000BD4E1
:1016B000DBF8001041F08051CBF80010DBF800009F
:1016C000012700F0805000906B4E3068C00510D4A8
:1016D000306840F480703060FFF790FD009005E0C6
:1016E000FFF78CFD0099401A022850D83068C005D9
:1016F000F6D55E4EA0686C3601280FD005283068FC
:1017000010D020F001003060306820F0040030601C
:10171000A068B8B1FFF772FD00900FE0306840F0AC
:101720000100F4E740F004003060F7E7FFF766FDE2
:101730000099411A41F28830814266D830688007AA
:10174000F4D50EE0FFF75AFD009007E0FFF756FDD5
:101750000099411A41F28830814256D8306880079A
:10176000F4D42FB1DBF8001021F08051CBF8001039
:10177000A069C8B33D49091D0968C1F38101022967
:101780004AD00228504607D0C8F8600000E03CE08C
:10179000FFF734FD04463BE04746C8F86000FFF71A
:1017A0002DFD064605E000BFFFF728FD801B02283F
:1017B0002BD828688001F7D4D4E907010843A16A2F
:1017C0002E4A490802EB0141626A41EA821108434C
:1017D00094F82C1040EA0161C9F800100120386625
:1017E000FFF70CFD044606E03EE000BFFFF706FDF4
:1017F000001B022809D828688001F7D534E000BF13
:10180000FFF7FCFC001B022802D90320BDE8F88F7B
:1018100028688001F4D427E00128F7D0D9F8000027
:10182000E26900F4800191421CD1226A00F03F017C
:10183000914217D147F6C071626A0140B1EB821F35
:1018400010D1A26A4FF0FF3300F4403103EB520293
:10185000B1EB024F06D194F82C1000F07060B0EBA1
:10186000016F01D00120D1E70020CFE7043802400A
:1018700000004742800E4742007000400000FFFF1A
:1018800010B5401EB0F1807F01D3012010BD4FF094
:10189000E02460610F21601701F095FD0020A06138
:1018A00007202061002010BD7047704710B590F8E8
:1018B0003C20012A22D0012280F83C20CA688C6892
:1018C00022F4407222434C6822F4806222430C6866
:1018D00022F4006222430C6922F4805222434C69B4
:1018E00022F400522243C969002322F480420A43B1
:1018F00001684A6480F83C30002010BD022010BD11
:1019000070B590F83C20012A32D0012480F83C4088
:10191000022280F83D2003685A689D6822F0700614
:101920000A6832435A60134B02689A4214D0B2F1EB
:10193000804F11D0104B9A420ED0104B9A420BD0D0
:101940000F4B9A4208D00F4B9A4205D00E4B9A4249
:1019500002D00E4B9A4204D1496825F08003194306
:10196000916080F83D40002180F83C10084670BD31
:10197000022070BD0000014000040040000800404B
:10198000000C0040000401400040014000180040ED
:1019900010B5040003D094F83D0010B107E0012019
:1019A00010BD002084F83C00204600F01FF8022003
:1019B00084F83D00211D206801F022FA012084F8FE
:1019C000460084F83E0084F83F0084F8400084F824
:1019D000410084F8420084F8430084F8440084F80D
:1019E000450084F83D00002010BD000008B5114AF4
:1019F00001681148914207D1016841F0010101607D
:101A0000006800F0010009E00C4A914211D1016820
:101A100041F480310160006800F4803000220090C1
:101A200011461820FFF758FCBDE808401820FFF7C2
:101A300045BC08BD00000140443802400040014060
:101A400090F83D10012901D001207047022180F853
:101A50003D100168CA6842F00102CA60006811497D
:101A6000884214D0B0F1804F11D00F4988420ED077
:101A70000E4988420BD00E49884208D00D49884251
:101A800005D00D49884202D00C49884204D18168B2
:101A900001F00701062903D0016841F0010101604E
:101AA0000020704700000140000400400008004092
:101AB000000C0040000401400040014000180040BC
:101AC00070B5044690F83C000025012817D0012687
:101AD00084F83C60022084F83D002068826822F08F
:101AE000770222F47F4282600868502838D00DDCEB
:101AF00020284FD005DC90B3102811D14AE00220F5
:101B000070BD302846D040280AD13BE060282FD055
:101B100070280DD0B0F5805F03D0B0F5005F12D013
:101B2000012584F83D60002084F83C00284670BD03
:101B3000CB68D1E90121206801F0DBF920688168D8
:101B400041F0770109E0CB68D1E90121206801F07B
:101B5000D0F92068816841F480418160E1E719E0B3
:101B6000CA684968206801F099FA5021206806E0A7
:101B7000CA684968206801F0A2FA6021206801F073
:101B8000C2F9CEE7CA684968206801F087FA4021A7
:101B90002068F4E7226801461046F0E72DE9F0419D
:101BA0000D46040003D094F83D0018B108E0012070
:101BB000BDE8F081002084F83C00204600F040F8A9
:101BC000022084F83D002068816844F207029143B6
:101BD0008160211D206801F013F9226890689169E5
:101BE000166A2B68AF69034340F20330814341EA30
:101BF0000721A868EF6908434FF6FC418843E9686C
:101C000040EA0720014328692F6A000140EA0730B3
:101C1000084369686D6926F0AA0646EA0515294356
:101C200093602268906154F8460B0162012004F829
:101C30001F09E0752076E0762077A0750020B7E7D1
:101C400030B587B0044614216846FEF7F1FA224DFC
:101C500023680021214802220124AB421AD11F4BE4
:101C600010331D6845F004051D601B6803F0040374
:101C70000593036843F008030360006800F0080060
:101C800005904FF440508DE81500CDE903126946E8
:101C900013481CE0134DAB421BD1104B14331D688D
:101CA00045F002051D601B6803F0020305930368FD
:101CB00043F004030360006800F004000590C020B6
:101CC0008DE815000320CDE9031069460648FFF7AB
:101CD00093F907B030BD00000008004030380240E2
:101CE000000C0240000401400008024070B590F86A
:101CF0003E60044690F83F5090F8423090F8432000
:101D0000022021B104290ED0012E1BD114E0012E96
:101D100018D1012B16D184F83E0084F8420001222C
:101D20000021206820E0012D0CD1012A0AD184F87D
:101D30003F0084F8430014E0012D03D1012B01D1B1
:101D4000012A01D0012070BD84F83E0084F83F00D4
:101D500084F8420084F8430001220021206801F049
:101D6000BBF801220421206801F0B6F82068016860
:101D700041F001010160002070BD70472DE9F04184
:101D800004460068C66805694FF00007A90713D527
:101D9000B10711D5F91E0161012020772068806903
:101DA0008007204602D0FFF7E8FF04E000F0A8F823
:101DB000204600F03AF92777680716D5700714D542
:101DC00021686FF004000861022020772068806994
:101DD00010F4407F204602D0FFF7CFFF04E000F070
:101DE0008FF8204600F021F92777280715D530070E
:101DF00013D521686FF0080008610420207720685F
:101E0000C0698007204602D0FFF7B7FF04E000F06A
:101E100077F8204600F009F92777E80616D5F0068E
:101E200014D521686FF01000086108202077206821
:101E3000C06910F4407F204602D0FFF79EFF04E007
:101E400000F05EF8204600F0F0F82777E80708D0A9
:101E5000F00706D021686FF001000861204600F00D
:101E600049F9280608D5300606D521686FF08000AC
:101E700008612046FFF718FD680608D5700606D5EC
:101E800021686FF040000861204600F051F9A80673
:101E90000AD5B00608D521686FF0200008612046F9
:101EA000BDE8F041FFF701BDBDE8F08110B586B097
:101EB000044614216846FEF7BBF90E4920688842A3
:101EC00016D10D480021026842F01002026000683D
:101ED00000F0100005904FF4206000900220CDE942
:101EE00001010120CDE9031069460448FFF784F899
:101EF00006B010BD00000140303802400010024022
:101F0000704770B5044690F83C0000260D46012845
:101F10000FD0012084F83C006AB1042A1DD0082AA1
:101F20002FD00C2A3FD00126002084F83C003046F8
:101F300070BD022070BD206800F0EEFF206881694E
:101F400041F0080181612068816921F0040181610B
:101F5000206881692A69114311E0206801F00CF8BA
:101F60002068816941F4006181612068816921F400
:101F700080618161206881692A6941EA0221816169
:101F8000D2E7206801F02EF82068C16941F008010D
:101F9000C1612068C16921F00401C1612068C16983
:101FA0002A69114311E0206801F050F82068C169E6
:101FB00041F40061C1612068C16921F48061C1619F
:101FC0002068C1692A6941EA0221C161ACE710B504
:101FD000040003D094F83D0010B107E0012010BDCB
:101FE000002084F83C00204600F01EF8022084F80F
:101FF0003D00211D206800F003FF012084F8460009
:1020000084F83E0084F83F0084F8400084F84100E2
:1020100084F8420084F8430084F8440084F84500C2
:1020200084F83D00002010BD7047704710B504468D
:10203000022249B104290ED0082913D094F8410096
:10204000012816D0012010BD94F83E000128F9D1D6
:1020500084F83E200FE094F83F000128F2D184F884
:102060003F2008E094F840000128EBD184F840209C
:1020700001E084F841200122206800F02DFF16497C
:102080002068164A884201D0904203D1436C43F441
:10209000004343642068884213D0B0F1804F10D0D1
:1020A0000F4988420DD00F4988420AD00E49884214
:1020B00007D0904205D00D49884202D00C49884291
:1020C00004D1816801F00701062903D0016841F0BD
:1020D00001010160002010BD00000140000401402A
:1020E0000004004000080040000C00400040014097
:1020F0000018004010B50068094988420ED109480F
:102100000368596A0848094CC1812268526A0282F0
:1021100041808280002058622168486210BD000022
:10212000004001405C01002000000020A4010020CC
:102130007047704770470000F8B5016804460868AA
:10214000CA684B6910F00F0F4FF000055AD003F02A
:10215000010602F49077374365D0C10705D0D10559
:1021600003D5616C41F001016164410705D5D907D0
:1021700003D0616C41F002016164810705D5D90784
:1021800003D0616C41F004016164010707D502F0DE
:102190002001314303D0616C41F008016164616C3E
:1021A00000293BD0800604D5900602D5204600F0D9
:1021B000C7FF20684069616CC0F3801001F008011E
:1021C000014320462BD000F094FF20684069400670
:1021D00021D52068143050E8001F21F0400140E86C
:1021E0000012002AF5D1E06BA8B16E490165E06BE1
:1021F000FEF76BFD002811D0E06B016D01B0BDE86A
:10220000F040084783060ED593060CD52046BDE85E
:10221000F84000F095BF2046FFF78CFFF8BDFFF7B0
:1022200089FF6564F8BD266B2023012E7DD1C6068B
:102230007BD5D60679D508684868009048694FF084
:102240000206400641D5E16B086840680004000CB6
:10225000E8D0A28D8242E5D9E085C869B0F5807FDB
:102260002DD020680C3050E8001F21F4807140E828
:102270000012002AF5D12168143151E8000F20F036
:10228000010041E80002002AF5D12068143050E82E
:10229000001F21F0400140E80012002AF5D184F827
:1022A0004230256320680C3050E8001F21F01001F7
:1022B00040E80012002AF5D1E06BFEF7BDFC666332
:1022C000A08DE18D401A81B22AE0A08DE18D401AE7
:1022D00081B2E08D0028A5D00029A3D022680C325D
:1022E00052E8000F20F4907042E80007002FF5D16B
:1022F0002068143050E8002F22F0010240E8002747
:10230000002FF5D184F84230256320680C3050E866
:10231000002F22F0100240E80023002BF5D1666365
:102320002046FFF706FFF8BDFFE705062BD515068B
:1023300029D594F841002128F5D1A068B0F5805F37
:1023400001D12069B0B1206A411C21622168007866
:102350004860E08C401E0004000CE084E3D120685B
:10236000C16821F08001C1602068C16841F040016E
:10237000C160D8E7206A0088C0F308004860206A7E
:10238000801C2062E5E74006CDD55006CBD5CA6853
:10239000204622F04002CA6084F8413000F096F9ED
:1023A000C1E70000E330000870B5040004D094F8E1
:1023B0004100002510B106E0012070BD84F84050B6
:1023C000204600F023F8242084F841002068C168EA
:1023D00021F40051C160204600F014FF206801691B
:1023E00021F4904101612068416921F02A01416195
:1023F0002068C16841F40051C1606564202084F800
:10240000410084F842006563002070BD2DE9F0436F
:1024100087B0064614216846FDF70AFF5A48594A14
:1024200033685949103802250327DFF860810024FA
:1024300093422BD10A6842F480120A60096801F4C1
:1024400080110591016841F004010160016801F00B
:1024500004010591016841F0080101600068CDE9BF
:10246000024700F0080005909814CDE90005082601
:10247000694604964648FEF7BFFD0420CDE90005F5
:10248000CDE902476946049640461CE0DFF804C1E6
:10249000072263451CD10B6843F400330B600968C5
:1024A00001F400310591016841F008010160006804
:1024B000029400F0080005906020CDE90005CDE908
:1024C000037269464046FEF797FD07B0BDE8F0830A
:1024D000DFF8C4C06345F8D10B6843F480230B6078
:1024E000096801F480210591016841F00201016051
:1024F0000068029400F0020005904FF44060CDE9BE
:102500000005CDE9037269462448FEF775FD254DA7
:1025100023484FF000672860C5E901744FF48068D4
:10252000C5E903486C614FF48039AC61C5E90749DE
:1025300028466C62FEF7ACFC08B1FEF7B0F9F56313
:10254000AE63184D164860353030E5E8020740208C
:10255000A5E81101134845F814496030AC61C5E99C
:1025600007496C62FEF794FC08B1FEF798F9B56371
:10257000002201212720AE63FEF7AEFE2720FEF7E2
:102580009DFEA2E70050004040380240000C02408F
:10259000000802400044004000480040000402409F
:1025A000286002400C03002090F84230202B01D01C
:1025B0000220704721B11AB10023036300F0A8BEC6
:1025C0000120704710B500681449884225D114498C
:1025D00000200A5CFF2A06D10A185378552B02D135
:1025E0009379C32B09D0401C0728F2DBBDE81040CB
:1025F00007220B490B48FFF7D7BF0844408840BA71
:1026000041420948C180918849BA018100F0AEFA7F
:1026100000F080FF00F056FFE8E710BD00480040E2
:102620005C000020C4020020000000202DE9F843D7
:10263000044690F84100984616460D46202802D0E0
:102640000220BDE8F88385B17EB1002060642120BE
:1026500084F84100FEF7D2FDA6848146E684A06896
:102660002027B0F5805F02D003E00120E9E7206970
:1026700010B12E4600250EE000260CE080212046F9
:1026800000F061FEA8B9C6B116F8010B21684860D8
:10269000E08C401EE084E08C4B464FF00002CDF809
:1026A00000800028EAD14FF04001204600F04BFEA8
:1026B00040B184F841700320C3E735F8020BC0F342
:1026C0000800E3E784F841700020BAE77047FEE7AE
:1026D0007FB500212548009101910291224A039182
:1026E00002604FF44032426001244FF000720461F6
:1026F0008260047680F820101D4AC0E90A21042572
:10270000C561C16080F830404461FEF774F908B1DA
:10271000FEF7C5F800940194694614480294FEF748
:10272000C1F808B1FEF7BBF802200090019069469D
:102730000E48FEF7B7F808B1FEF7B1F80320009095
:10274000019069460948FEF7ADF808B1FEF7A7F811
:102750000095694605480195FEF7A4F8002801D0C8
:10276000FEF79DF87FBD0000002001406C000020B6
:102770000100000F154808B5016841F4001101601F
:10278000016801F400110091016841F480010160C9
:102790000068002200F48000009011460C20FEF733
:1027A0009BFD0C20FEF78AFD002211460E20FEF74D
:1027B00093FD0E20FEF782FD002211463820FEF721
:1027C0008BFDBDE808403820FEF778BD3038024068
:1027D0002DE9F04186B014216846FDF729FD334804
:1027E0000024016841F004010160016801F0040166
:1027F0000591016841F080010160016801F08001EC
:102800000591016841F001010160016801F00101D9
:102810000591016841F010010160016801F01001AB
:102820000591016841F002010160016801F00201B7
:102830000591016841F00801016000681C4F00F03B
:1028400008000590002280213846FEF7D2FCDFF810
:1028500064804FF47076002231464046FEF7C9FC92
:102860004FF44050CDE90004694640460294FEF71B
:10287000C3FBF00001258DE8310069460E48FEF7E4
:10288000BBFB80200090CDE9015469463846039493
:10289000FEF7B2FB0096CDE9015469464046039429
:1028A000FEF7AAFB06B0BDE8F08100003038024018
:1028B000000C0240000402400000024010B596B037
:1028C00000240F9410941194129413941C216846C0
:1028D0001494FDF7ADFC202107A8FDF7A9FC2D48B5
:1028E0002B49016040F28F61C0E9011440F2E731E9
:1028F000C0E9031444618461FFF74AF808B1FDF7A9
:10290000CEFF4FF480500F900FA92248FFF7D8F860
:1029100008B1FDF7C4FF1F48FFF759FB08B1FDF7E9
:10292000BEFF139413A91B481494FEF7E9FF08B1E6
:10293000FDF7B5FF6020CDE90004029403940494F0
:1029400005940022694613480694FFF7DAFA08B1A5
:10295000FDF7A5FF042269460E48FFF7D2FA08B139
:10296000FDF79DFF0794089409944FF400500A94D2
:10297000CDE90B4007A907480E94FEF797FF08B171
:10298000FDF78DFF0348FFF791FA16B010BD000068
:10299000000001401401002010B58CB024216846CD
:1029A000FDF746FC00241648099414490A94C0E92E
:1029B00000144FF6FF71C0E90241046184610320F5
:1029C000CDE900040120CDE902040494CDE90540DD
:1029D000079469460A480894FFF7E0F808B1FDF744
:1029E0005EFF099409A906480A94FEF789FF0028AA
:1029F00001D0FDF754FF0CB010BD000000080040EE
:102A00005C01002010B58CB024216846FDF710FC55
:102A100000241648099414490A94C0E900144FF69A
:102A2000FF71C0E902410461446184610320CDE982
:102A300000040120CDE902040494CDE90540079487
:102A400069460A480894FFF7A9F808B1FDF727FF7F
:102A5000099409A905480A94FEF752FF002801D0FD
:102A6000FDF71DFF0CB010BD00040140A4010020C3
:102A70001FB5002111480091019102910E4A039166
:102A8000026044F29F12C0E9012140F2E732C0E93E
:102A900003218161FEF77CFF08B1FDF700FF4FF4D1
:102AA0008050009069460548FFF70AF8002801D0D9
:102AB000FDF7F5FE1FBD000000400140EC010020C5
:102AC0000C4810B50A4901604FF4E1314160002122
:102AD00081600C22C160C0E904128161C161FFF70D
:102AE00063FC002803D0BDE81040FDF7D8BE10BD40
:102AF00000500040340200200C4810B50A49016023
:102B00004FF4E1314160002181600C22C160C0E9D5
:102B100004128161C161FFF747FC002803D0BDE8C2
:102B20001040FDF7BCBE10BD004400407C020020F8
:102B30000C4810B50A4901604FF4E13141600021B1
:102B400081600C22C160C0E904128161C161FFF79C
:102B50002BFC002803D0BDE81040FDF7A0BE10BD3F
:102B600000480040C4020020FEE700002DE9F041CB
:102B70003F4C404FB4F906003860B4F90200786069
:102B800007F11806B4F908003060B4F90400706069
:102B9000384600F077F87861304600F073F87061DD
:102BA000796900290A4600DA524292B2628100280D
:102BB00000DA4042304B80B2A0811D686A631A6817
:102BC0009063E0882D4D4FF00008E0B1002927DA2E
:102BD0004FF001024FF040012846FEF70AFB0022A9
:102BE00080212846FEF705FB20894FF480714C00B8
:102BF00000B37069002829DA4FF000022846FEF77A
:102C0000F8FA01222CE0002240212846FEF7F1FAD2
:102C1000002280212846FEF7ECFAC7F81080E3E78F
:102C20004FF00002D6DD4FF040012846FEF7E1FAF2
:102C30000122D5E700222846FEF7DBFA00222146D2
:102C40002846FEF7D6FAC6F810800DE002DD4FF0F8
:102C5000010201E04FF000022846FEF7CAFA002206
:102C600021462846FEF7C5FA0020BDE8F0810000A5
:102C7000000000202C00002014010020000402406D
:102C8000FEE700002DE9F04104462DED048B42F2F1
:102C900010777E42D4E90001451AA56020692844D6
:102CA0002061B84201DD276102E0B04200DA26610E
:102CB000E068281AFDF7E0FB9FED191B53EC112B80
:102CC000FDF768FB41EC180B2069FDF7D5FB9FED84
:102CD000161B53EC112BFDF75DFB41EC190B28463D
:102CE000FDF7CAFB9FED121B53EC112BFDF752FBB6
:102CF00053EC192BFDF7A7FA53EC182BFDF7A3FAA9
:102D0000FDF7CBFB6061B84201DD676102E0B042D4
:102D100000DA6661E5606069BDEC048BBDE8F081B6
:102D20009A9999999999B93FB81E85EB51B87E3F08
:102D3000000000000000D83F70477047FEF764BAFB
:102D400030B593B030216846FDF772FA14210CA813
:102D5000FDF76EFA1D480025016841F080510160C1
:102D6000006800F0805011901948016841F48041DA
:102D700001600068022400F480401190012000905E
:102D8000000401908001CDE9064006200890A820AB
:102D9000CDE9090404200B906846FEF7BBFB08B19F
:102DA00072B6FEE70CA90F2081E831004FF4A05065
:102DB0000F904FF48050109005210CA8FEF7BEFA3A
:102DC000002801D072B6FEE713B030BD4038024093
:102DD000007000400248016841F4700101607047D2
:102DE00088ED00E010B50448FEF7C8FFBDE81040CC
:102DF0000248FEF7C3BF000014010020EC010020D0
:102E0000F0B50268294C2A4D2A4E2B4F2B4B4FF020
:102E1000804CA04209D0604507D0A84205D0B042FE
:102E200003D0B84201D0984204D122F0700E4A6813
:102E300042EA0E02A0421BD0604519D0A84217D02A
:102E4000B04215D0B84213D0984211D01C4DA842C0
:102E50000ED01C4DA8420BD01B4DA84208D01B4DD4
:102E6000A84205D01A4DA84202D01A4DA84203D15B
:102E700022F44075CA682A434D6922F080022A4331
:102E800002608A68C2620A688262A04201D09842E7
:102E900001D109690163012141610169C90703D0B9
:102EA000016921F001010161F0BD00000000014055
:102EB0000004004000080040000C004000040140F5
:102EC000004001400044014000480140001800401B
:102ED000001C00400020004010B501F01F0301213C
:102EE000046A99408C430462016A9A40114301626A
:102EF00010BD10B5846842EA032224F47F440A43DB
:102F00002243826010BD826822F070020A4342F0C0
:102F10000701816070470000F0B5036A026A22F081
:102F20000102026242688469124E24F073050C6843
:102F30002C4323F002058B682B430D4DA84201D092
:102F4000B04205D123F00807CB683B4323F00403CC
:102F5000A84201D0B04205D14D6922F44072154318
:102F60008A692A4342608461496841630362F0BD13
:102F70000000014000040140F0B5026A036A23F03A
:102F800010030362436884690D6824F4E64444EA4C
:102F900005248D6822F0200242EA05120F4D104EE2
:102FA000A84201D0B04206D1CF6822F0800242EAA6
:102FB000071222F04002A84201D0B04207D14D6969
:102FC00023F4406343EA85038D6943EA8503436044
:102FD0008461496881630262F0BD00000000014025
:102FE00000040140F0B5026A036A23F480730362AF
:102FF0004368C46922F4007224F073050C68124E11
:103000002C438D6842EA05220E4DA84201D0B04201
:1030100006D1CF6822F4006242EA072222F48062DD
:10302000A84201D0B04207D14D6923F4405343EA8E
:1030300005138D6943EA05134360C4614968C163A0
:103040000262F0BD000001400004014030B5046A96
:10305000026A22F4805202624268C3690D6823F456
:10306000E64343EA05238D6824F4005444EA05341A
:10307000084DA84202D0084DA84204D14D6922F45F
:10308000804242EA85124260C36149680164046279
:1030900030BD0000000001400004014010B5036A8B
:1030A000046A24F001040462846924F0F00444EA10
:1030B000021423F00A020A438461026210BD10B5B3
:1030C000036A046A24F010040462846923F0A003F4
:1030D00024F4704444EA023243EA0111826101623D
:1030E00010BD10B5806B0021C185C184FFF722F8A7
:1030F00010BD01680C3151E8002F22F4907241E8B4
:103100000023002BF5D10168143151E8002F22F083
:10311000010241E80023002BF5D1016B012909D1FF
:1031200001680C3151E8002F22F0100241E8002321
:10313000002BF5D1202180F8421000210163704757
:1031400008B590F84210222901D0022008BD8268FB
:103150004FF480539A4201D1016921B1816A9A42A8
:103160001BD04AB10AE00268816A5268C2F30802C1
:103170000A80816A891C08E0026972B1026852689B
:1031800002F07F020A70816A491C8162C18D491E6A
:103190000904090CC18503D01BE002685268F1E7FD
:1031A0000168CA6822F02002CA600168CA6822F475
:1031B0008072CA6001684A6922F001024A612021D6
:1031C00080F8421000214163026B012A03D0FFF70F
:1031D000F9F9002008BD016301680C3151E8002FA6
:1031E00022F0100241E80023002BF5D101680A68A3
:1031F000D20602D50A6849680091818DFEF799FFD1
:10320000E7E7000070B5044600680169E26821F450
:103210004051114301612169A068E2690843616975
:10322000114308432168CA6849F20C639A43024378
:10323000CA6020684169A26921F44071114341616B
:1032400031492068884202D03049884202D1FEF7D5
:103250001FF901E0FEF70CF9E2690023192164254A
:103260003226B2F5004F626828D0A0FB0101930F0F
:103270009200FCF7A5FF0146B0FBF5F06FF01802D5
:10328000504301EB800006EB0010B0FBF5F000F0BE
:10329000F002B1FBF5F002EB0012B1FBF5F06FF0BC
:1032A0001803584301EB800006EB0010B0FBF5F06B
:1032B00000F00F0021681044886070BDA0FB010180
:1032C00092185B41FCF77CFF0146B0FBF5F0020170
:1032D000B1FBF5F06FF01803584301EB800006EBEB
:1032E000C000B0FBF5F000F0F80002EB4002B1FBCB
:1032F000F5F0584301EB800006EBC000B0FBF5F0A1
:1033000000F00700D6E70000001001400014014063
:1033100081628285C28500214164222180F84210A9
:10332000016921B10168CA6842F48072CA6001680B
:103330004A6942F001024A610068C16841F0200117
:10334000C160002070472DE9F843984617460D46A6
:103350000446089E24E0701C22D0FDF74FFFA0EB2E
:103360000800B0421AD8CEB12068C168490717D505
:10337000802D15D0402D13D00168C94309070FD403
:1033800001680025406800902046FFF7B2FE082043
:10339000606484F840500120BDE8F8830320FBE717
:1033A0002068006835EA000004D00020B842D2D07E
:1033B0000020F1E70120F9E70148FEF7BDBE00005B
:1033C000C4020020FEE70907090E002804DB00F113
:1033D000E02080F80014704700F00F0000F1E020BA
:1033E00080F8141D704702E008C8121F08C1002AA7
:1033F000FAD170477047002001E001C1121F002A76
:10340000FBD17047FDF708FFFFF79AFCFFF7E0F9E3
:10341000FFF7B0F9FFF75CF9FFF750FAFFF7BCFAD6
:10342000FFF7F0FAFFF74CFBFFF766FBFFF780FBB7
:10343000FFF71EFB07221A491A48FFF7B5F81A488A
:10344000FEF7FEFA3C211948FEF750FC3C211848D3
:10345000FEF74CFC00211748FEF7E8FD0421154853
:10346000FEF7E4FD144C002240212046FDF7C1FE8A
:10347000002280212046FDF7BCFE0022A115204637
:10348000FDF7B7FE002261152046FDF7B2FE0422CB
:103490000A490B48FDF726FB3220FDF79BFDFBE7B1
:1034A0005C000020C4020020EC0100205C01002030
:1034B000A40100201401002000040240120000209A
:1034C0006C0000201CB50FA10A23D1E90001CDE951
:1034D00000010E48082200788DF802000B481230D7
:1034E00001788DF8031081788DF8041001798DF83A
:1034F000051080798DF8060069460548FFF796F8B3
:1035000000201CBDFF550000000000C3000000208B
:10351000C402002070B5154C4FF400712046FDF731
:1035200063FE054621152046FDF75EFE45EA40058F
:10353000E1142046FDF758FE45EA8006A514294609
:103540002046FDF751FE0A4C46EAC00629462046B1
:10355000FDF74AFE46EA00154FF400512046FDF7FC
:1035600043FE044945EA4010087070BD0000024067
:10357000000402400000002000061016000610168D
:103580000000000000000000010203040607080913
:103590000000000001020304B8350008000000200C
:1035A0002C000000E6330008E43500082C00002061
:1035B000A4070000F633000800000000000000002F
:1035C00000000000000000000000000000000000FB
:1035D00000000000010000001000000000000000DA
:0435E0000024F400CF
:040000050800018965
:00000001FF
